{
  "contractName": "LogicTwo",
  "abi": [
    {
      "constant": true,
      "inputs": [],
      "name": "val",
      "outputs": [
        {
          "name": "",
          "type": "uint256"
        }
      ],
      "payable": false,
      "stateMutability": "view",
      "type": "function"
    },
    {
      "constant": false,
      "inputs": [
        {
          "name": "_val",
          "type": "uint256"
        }
      ],
      "name": "setVal",
      "outputs": [
        {
          "name": "success",
          "type": "bool"
        }
      ],
      "payable": false,
      "stateMutability": "nonpayable",
      "type": "function"
    },
    {
      "constant": true,
      "inputs": [],
      "name": "val2",
      "outputs": [
        {
          "name": "",
          "type": "uint256"
        }
      ],
      "payable": false,
      "stateMutability": "view",
      "type": "function"
    },
    {
      "constant": false,
      "inputs": [
        {
          "name": "_val",
          "type": "uint256"
        }
      ],
      "name": "setVal2",
      "outputs": [
        {
          "name": "success",
          "type": "bool"
        }
      ],
      "payable": false,
      "stateMutability": "nonpayable",
      "type": "function"
    },
    {
      "constant": false,
      "inputs": [
        {
          "name": "_val",
          "type": "uint256"
        }
      ],
      "name": "setNewVal",
      "outputs": [
        {
          "name": "success",
          "type": "bool"
        }
      ],
      "payable": false,
      "stateMutability": "nonpayable",
      "type": "function"
    }
  ],
  "bytecode": "0x608060405234801561001057600080fd5b5061020e806100206000396000f30060806040526004361061006d576000357c0100000000000000000000000000000000000000000000000000000000900463ffffffff1680633c6bb436146100725780633d4197f01461009d578063766de700146100e257806395cacbe014610127578063b52b657d14610152575b600080fd5b34801561007e57600080fd5b50610087610197565b6040518082815260200191505060405180910390f35b3480156100a957600080fd5b506100c86004803603810190808035906020019092919050505061019d565b604051808215151515815260200191505060405180910390f35b3480156100ee57600080fd5b5061010d600480360381019080803590602001909291905050506101b2565b604051808215151515815260200191505060405180910390f35b34801561013357600080fd5b5061013c6101c7565b6040518082815260200191505060405180910390f35b34801561015e57600080fd5b5061017d600480360381019080803590602001909291905050506101cd565b604051808215151515815260200191505060405180910390f35b60005481565b60008160020260008190555060019050919050565b60008160030260008190555060019050919050565b60015481565b600081601602600181905550600190509190505600a165627a7a72305820ffbc6b62e20e2194a7dae37da9b5a87f3cf090e87e92ec0c0d0c62061297b6ea0029",
  "source": "pragma solidity ^0.4.21;\n\nimport './LogicOne.sol';\n\ncontract LogicTwo is LogicOne {\n\n    function setNewVal(uint _val) public returns (bool success) {\n        val = 3 * _val;\n        return true;\n    }\n\n}\n",
  "sourcePath": "/Users/bernardpeh/upgradable_smart_contract/contracts/LogicTwo.sol",
  "compiler": {
    "name": "solc",
    "version": "0.4.23+commit.124ca40d.Emscripten.clang"
  },
  "schemaVersion": "2.0.0",
  "updatedAt": "2018-05-20T11:50:40.829Z"
}