{
  "contractName": "LogicOne",
  "abi": [
    {
      "constant": true,
      "inputs": [],
      "name": "s",
      "outputs": [
        {
          "name": "",
          "type": "address"
        }
      ],
      "payable": false,
      "stateMutability": "view",
      "type": "function"
    },
    {
      "inputs": [
        {
          "name": "_s",
          "type": "address"
        }
      ],
      "payable": false,
      "stateMutability": "nonpayable",
      "type": "constructor"
    },
    {
      "constant": false,
      "inputs": [
        {
          "name": "_val",
          "type": "uint256"
        }
      ],
      "name": "setVal",
      "outputs": [
        {
          "name": "success",
          "type": "bool"
        }
      ],
      "payable": false,
      "stateMutability": "nonpayable",
      "type": "function"
    }
  ],
  "bytecode": "0x608060405234801561001057600080fd5b5060405160208061029b83398101806040528101908080519060200190929190505050806000806101000a81548173ffffffffffffffffffffffffffffffffffffffff021916908373ffffffffffffffffffffffffffffffffffffffff16021790555050610218806100836000396000f30060806040526004361061004c576000357c0100000000000000000000000000000000000000000000000000000000900463ffffffff1680633d4197f01461005157806386b714e214610096575b600080fd5b34801561005d57600080fd5b5061007c600480360381019080803590602001909291905050506100ed565b604051808215151515815260200191505060405180910390f35b3480156100a257600080fd5b506100ab6101c7565b604051808273ffffffffffffffffffffffffffffffffffffffff1673ffffffffffffffffffffffffffffffffffffffff16815260200191505060405180910390f35b60008060009054906101000a900473ffffffffffffffffffffffffffffffffffffffff1673ffffffffffffffffffffffffffffffffffffffff16633d4197f0836002026040518263ffffffff167c010000000000000000000000000000000000000000000000000000000002815260040180828152602001915050602060405180830381600087803b15801561018257600080fd5b505af1158015610196573d6000803e3d6000fd5b505050506040513d60208110156101ac57600080fd5b81019080805190602001909291905050505060019050919050565b6000809054906101000a900473ffffffffffffffffffffffffffffffffffffffff16815600a165627a7a723058209baa3e918dabc958e17c3c18f2ac4b51a336869c5fb8f5d131e322ff210e167d0029",
  "source": "pragma solidity ^0.4.21;\n\nimport './LogicI.sol';\nimport './Storage.sol';\n\ncontract LogicOne is LogicI {\n    \n    Storage public s;\n\n    constructor(Storage _s) public {\n        s = _s;\n    }\n\n    function setVal(uint _val) public returns (bool success) {\n        s.setVal(2 * _val);\n        return true;\n    }\n}\n\n",
  "sourcePath": "/Users/bernardpeh/upgradable_smart_contract/contracts/LogicOne.sol",
  "compiler": {
    "name": "solc",
    "version": "0.4.23+commit.124ca40d.Emscripten.clang"
  },
  "schemaVersion": "2.0.0",
  "updatedAt": "2018-05-17T06:03:10.230Z"
}