{
  "contractName": "LogicOne",
  "abi": [
    {
      "constant": true,
      "inputs": [],
      "name": "val",
      "outputs": [
        {
          "name": "",
          "type": "uint256"
        }
      ],
      "payable": false,
      "stateMutability": "view",
      "type": "function"
    },
    {
      "constant": true,
      "inputs": [],
      "name": "val2",
      "outputs": [
        {
          "name": "",
          "type": "uint256"
        }
      ],
      "payable": false,
      "stateMutability": "view",
      "type": "function"
    },
    {
      "constant": false,
      "inputs": [
        {
          "name": "_val",
          "type": "uint256"
        }
      ],
      "name": "setVal",
      "outputs": [
        {
          "name": "success",
          "type": "bool"
        }
      ],
      "payable": false,
      "stateMutability": "nonpayable",
      "type": "function"
    },
    {
      "constant": false,
      "inputs": [
        {
          "name": "_val",
          "type": "uint256"
        }
      ],
      "name": "setVal2",
      "outputs": [
        {
          "name": "success",
          "type": "bool"
        }
      ],
      "payable": false,
      "stateMutability": "nonpayable",
      "type": "function"
    }
  ],
  "bytecode": "0x608060405234801561001057600080fd5b506101a9806100206000396000f300608060405260043610610062576000357c0100000000000000000000000000000000000000000000000000000000900463ffffffff1680633c6bb436146100675780633d4197f01461009257806395cacbe0146100d7578063b52b657d14610102575b600080fd5b34801561007357600080fd5b5061007c610147565b6040518082815260200191505060405180910390f35b34801561009e57600080fd5b506100bd6004803603810190808035906020019092919050505061014d565b604051808215151515815260200191505060405180910390f35b3480156100e357600080fd5b506100ec610162565b6040518082815260200191505060405180910390f35b34801561010e57600080fd5b5061012d60048036038101908080359060200190929190505050610168565b604051808215151515815260200191505060405180910390f35b60005481565b60008160020260008190555060019050919050565b60015481565b600081601602600181905550600190509190505600a165627a7a723058200007badad6fe8b076d997c1dc1863d5e71e91cb136849aed5b3995849f934bf20029",
  "source": "pragma solidity ^0.4.21;\n\nimport './Storage.sol';\n\ncontract LogicOne is Storage {\n\n    function setVal(uint _val) public returns (bool success) {\n        val = 2 * _val;\n        return true;\n    }\n\n    function setVal2(uint _val) public returns (bool success) {\n        val2 = 22 * _val;\n        return true;\n    }\n\n}\n\n",
  "sourcePath": "/Users/bernardpeh/upgradable_smart_contract/contracts/LogicOne.sol",
  "compiler": {
    "name": "solc",
    "version": "0.4.23+commit.124ca40d.Emscripten.clang"
  },
  "schemaVersion": "2.0.0",
  "updatedAt": "2018-05-20T11:50:40.683Z"
}