{
  "contractName": "Registry",
  "abi": [
    {
      "constant": true,
      "inputs": [],
      "name": "owner",
      "outputs": [
        {
          "name": "",
          "type": "address"
        }
      ],
      "payable": false,
      "stateMutability": "view",
      "type": "function"
    },
    {
      "constant": true,
      "inputs": [],
      "name": "storage_contract",
      "outputs": [
        {
          "name": "",
          "type": "address"
        }
      ],
      "payable": false,
      "stateMutability": "view",
      "type": "function"
    },
    {
      "inputs": [],
      "payable": false,
      "stateMutability": "nonpayable",
      "type": "constructor"
    },
    {
      "payable": true,
      "stateMutability": "payable",
      "type": "fallback"
    }
  ],
  "bytecode": "0x608060405234801561001057600080fd5b50336000806101000a81548173ffffffffffffffffffffffffffffffffffffffff021916908373ffffffffffffffffffffffffffffffffffffffff1602179055506100596100bb565b604051809103906000f080158015610075573d6000803e3d6000fd5b50600160006101000a81548173ffffffffffffffffffffffffffffffffffffffff021916908373ffffffffffffffffffffffffffffffffffffffff1602179055506100cb565b6040516103cc806102ad83390190565b6101d3806100da6000396000f30060806040526004361061004c576000357c0100000000000000000000000000000000000000000000000000000000900463ffffffff1680638da5cb5b146100ae578063a0b6f6a714610105575b6000600160009054906101000a900473ffffffffffffffffffffffffffffffffffffffff16905060405136600082376000803683855af43d806000843e816000811461009f57600181146100a3576100a7565b8184fd5b8184f35b5050505050005b3480156100ba57600080fd5b506100c361015c565b604051808273ffffffffffffffffffffffffffffffffffffffff1673ffffffffffffffffffffffffffffffffffffffff16815260200191505060405180910390f35b34801561011157600080fd5b5061011a610181565b604051808273ffffffffffffffffffffffffffffffffffffffff1673ffffffffffffffffffffffffffffffffffffffff16815260200191505060405180910390f35b6000809054906101000a900473ffffffffffffffffffffffffffffffffffffffff1681565b600160009054906101000a900473ffffffffffffffffffffffffffffffffffffffff16815600a165627a7a72305820ebd0c2bb92a12498fc9d9db48798c552b94b71307e18eb6318b626941869c78800296080604052336000806101000a81548173ffffffffffffffffffffffffffffffffffffffff021916908373ffffffffffffffffffffffffffffffffffffffff160217905550610379806100536000396000f30060806040526004361061006d576000357c0100000000000000000000000000000000000000000000000000000000900463ffffffff1680633c6bb436146100725780633d4197f01461009d5780634de94320146100e25780635aa4470f146101395780638da5cb5b14610194575b600080fd5b34801561007e57600080fd5b506100876101eb565b6040518082815260200191505060405180910390f35b3480156100a957600080fd5b506100c8600480360381019080803590602001909291905050506101f1565b604051808215151515815260200191505060405180910390f35b3480156100ee57600080fd5b506100f761025b565b604051808273ffffffffffffffffffffffffffffffffffffffff1673ffffffffffffffffffffffffffffffffffffffff16815260200191505060405180910390f35b34801561014557600080fd5b5061017a600480360381019080803573ffffffffffffffffffffffffffffffffffffffff169060200190929190505050610281565b604051808215151515815260200191505060405180910390f35b3480156101a057600080fd5b506101a9610328565b604051808273ffffffffffffffffffffffffffffffffffffffff1673ffffffffffffffffffffffffffffffffffffffff16815260200191505060405180910390f35b60015481565b6000600260009054906101000a900473ffffffffffffffffffffffffffffffffffffffff1673ffffffffffffffffffffffffffffffffffffffff163373ffffffffffffffffffffffffffffffffffffffff1614151561024f57600080fd5b81600181905550919050565b600260009054906101000a900473ffffffffffffffffffffffffffffffffffffffff1681565b60008060009054906101000a900473ffffffffffffffffffffffffffffffffffffffff1673ffffffffffffffffffffffffffffffffffffffff163373ffffffffffffffffffffffffffffffffffffffff161415156102de57600080fd5b81600260006101000a81548173ffffffffffffffffffffffffffffffffffffffff021916908373ffffffffffffffffffffffffffffffffffffffff16021790555060019050919050565b6000809054906101000a900473ffffffffffffffffffffffffffffffffffffffff16815600a165627a7a72305820deae5e6de33ca2e94269d673f59ea0611e3f3498ec18387579062c9b1b90fa6e0029",
  "source": "pragma solidity ^0.4.21;\n\nimport './Ownable.sol';\nimport './Storage.sol';\n\n// https://blog.indorse.io/ethereum-upgradeable-smart-contract-strategies-456350d0557c\n// entry contract\ncontract Registry is Ownable {\n    \n    Storage public storage_contract;\n\n    constructor() public {\n        storage_contract = new Storage();\n    }\n\n    // proxy fall back is so that we can access all storage functions from this contract\n    function () payable public {\n\n        address target = address(storage_contract);\n\n        assembly {\n            // Copy the data sent to the memory address starting 0x40\n            let ptr := mload(0x40)\n            calldatacopy(ptr, 0, calldatasize)\n\n            // Proxy the call to storage contract with the provided gas and data\n            let result := delegatecall(gas, target, ptr, calldatasize, 0, 0)\n\n            // Copy the data returned by the proxied call to memory\n            let size := returndatasize\n            returndatacopy(ptr, 0, size)\n\n            // Check what the result is, return and revert accordingly\n            switch result\n            case 0 { revert(ptr, size) }\n            case 1 { return(ptr, size) }\n        }\n    }\n\n}\n",
  "sourcePath": "/Users/bernardpeh/upgradable_smart_contract/contracts/Registry.sol",
  "compiler": {
    "name": "solc",
    "version": "0.4.23+commit.124ca40d.Emscripten.clang"
  },
  "schemaVersion": "2.0.0",
  "updatedAt": "2018-05-17T06:03:10.231Z"
}