{
  "contractName": "Registry",
  "abi": [
    {
      "constant": true,
      "inputs": [],
      "name": "val",
      "outputs": [
        {
          "name": "",
          "type": "uint256"
        }
      ],
      "payable": false,
      "stateMutability": "view",
      "type": "function"
    },
    {
      "constant": true,
      "inputs": [],
      "name": "logic_contract",
      "outputs": [
        {
          "name": "",
          "type": "address"
        }
      ],
      "payable": false,
      "stateMutability": "view",
      "type": "function"
    },
    {
      "constant": true,
      "inputs": [],
      "name": "owner",
      "outputs": [
        {
          "name": "",
          "type": "address"
        }
      ],
      "payable": false,
      "stateMutability": "view",
      "type": "function"
    },
    {
      "constant": true,
      "inputs": [],
      "name": "val2",
      "outputs": [
        {
          "name": "",
          "type": "uint256"
        }
      ],
      "payable": false,
      "stateMutability": "view",
      "type": "function"
    },
    {
      "payable": true,
      "stateMutability": "payable",
      "type": "fallback"
    },
    {
      "anonymous": false,
      "inputs": [
        {
          "indexed": false,
          "name": "msg_sender",
          "type": "address"
        },
        {
          "indexed": false,
          "name": "owner",
          "type": "address"
        }
      ],
      "name": "OwnerCalled",
      "type": "event"
    },
    {
      "constant": false,
      "inputs": [
        {
          "name": "_c",
          "type": "address"
        }
      ],
      "name": "setLogicContract",
      "outputs": [
        {
          "name": "success",
          "type": "bool"
        }
      ],
      "payable": false,
      "stateMutability": "nonpayable",
      "type": "function"
    }
  ],
  "bytecode": "0x608060405233600260006101000a81548173ffffffffffffffffffffffffffffffffffffffff021916908373ffffffffffffffffffffffffffffffffffffffff1602179055506103b7806100546000396000f30060806040526004361061006d576000357c0100000000000000000000000000000000000000000000000000000000900463ffffffff1680633c6bb436146100cf5780634de94320146100fa5780635aa4470f146101515780638da5cb5b146101ac57806395cacbe014610203575b6000600360009054906101000a900473ffffffffffffffffffffffffffffffffffffffff16905060405136600082376000803683855af43d806000843e81600081146100c057600181146100c4576100c8565b8184fd5b8184f35b5050505050005b3480156100db57600080fd5b506100e461022e565b6040518082815260200191505060405180910390f35b34801561010657600080fd5b5061010f610234565b604051808273ffffffffffffffffffffffffffffffffffffffff1673ffffffffffffffffffffffffffffffffffffffff16815260200191505060405180910390f35b34801561015d57600080fd5b50610192600480360381019080803573ffffffffffffffffffffffffffffffffffffffff16906020019092919050505061025a565b604051808215151515815260200191505060405180910390f35b3480156101b857600080fd5b506101c161035f565b604051808273ffffffffffffffffffffffffffffffffffffffff1673ffffffffffffffffffffffffffffffffffffffff16815260200191505060405180910390f35b34801561020f57600080fd5b50610218610385565b6040518082815260200191505060405180910390f35b60005481565b600360009054906101000a900473ffffffffffffffffffffffffffffffffffffffff1681565b60007f8e0926ba3bf57bee594db1ba942d2d4f2b8f8fcfda47345cf855847dc8411bc433600260009054906101000a900473ffffffffffffffffffffffffffffffffffffffff16604051808373ffffffffffffffffffffffffffffffffffffffff1673ffffffffffffffffffffffffffffffffffffffff1681526020018273ffffffffffffffffffffffffffffffffffffffff1673ffffffffffffffffffffffffffffffffffffffff1681526020019250505060405180910390a181600360006101000a81548173ffffffffffffffffffffffffffffffffffffffff021916908373ffffffffffffffffffffffffffffffffffffffff16021790555060019050919050565b600260009054906101000a900473ffffffffffffffffffffffffffffffffffffffff1681565b600154815600a165627a7a723058207d50e5ac6c3cd30b17a24928f62321416940fd4820e1c6e64122fb727a3148b40029",
  "source": "pragma solidity ^0.4.21;\n\nimport './Ownable.sol';\nimport './Storage.sol';\n\n// https://blog.indorse.io/ethereum-upgradeable-smart-contract-strategies-456350d0557c\n// entry contract for administrator\n\ncontract Registry is Storage, Ownable {\n\n    address public logic_contract;\n\n    function setLogicContract(address _c) public onlyOwner returns (bool success){\n        logic_contract = _c;\n        return true;\n    }\n\n    // proxy fall back is so that we can access all admin functions in the storage contract\n    function () payable public {\n\n        address target = logic_contract;\n\n        assembly {\n            // Copy the data sent to the memory address starting 0x40\n            let ptr := mload(0x40)\n            calldatacopy(ptr, 0, calldatasize)\n\n            // Proxy the call to the contract address with the provided gas and data\n            let result := delegatecall(gas, target, ptr, calldatasize, 0, 0)\n\n            // Copy the data returned by the proxied call to memory\n            // http://solidity.readthedocs.io/en/v0.4.24/assembly.html\n            let size := returndatasize\n            returndatacopy(ptr, 0, size)\n\n            // Check what the result is, return and revert accordingly\n            switch result\n            case 0 { revert(ptr, size) }\n            case 1 { return(ptr, size) }\n        }\n    }\n\n}\n",
  "sourcePath": "/Users/bernardpeh/upgradable_smart_contract/contracts/Registry.sol",
  "compiler": {
    "name": "solc",
    "version": "0.4.23+commit.124ca40d.Emscripten.clang"
  },
  "schemaVersion": "2.0.0",
  "updatedAt": "2018-05-20T11:50:40.577Z"
}